:020000040800F2
:1000000058080020B1100008D1030008D3030008ED
:10001000D7030008DB030008DF030008000000002E
:10002000000000000000000000000000E3030008E2
:10003000E503000800000000E7030008E9030008EA
:10004000CB100008CB100008CB100008CB10000824
:10005000CB100008CB100008CB100008CB10000814
:10006000CB100008CB100008CB100008CB10000804
:10007000CB100008CB100008CB100008CB100008F4
:10008000CB100008CB100008CB100008CB100008E4
:10009000CB100008CB100008CB100008CB100008D4
:1000A000CB100008CB100008CB100008CB100008C4
:1000B00029060008CB100008CB100008CB10000860
:1000C000CB100008CB100008CB100008CB100008A4
:1000D000CB10000825100008CB100008010A00080A
:1000E000CB100008CB100008CB100008CB10000884
:1000F000CB100008CB100008CB100008CB10000874
:10010000CB100008CB100008CB100008CB10000863
:10011000CB100008CB100008CB100008CB10000853
:10012000CB100008CB100008CB100008CB10000843
:1001300000F002F800F03FF80AA090E8000C8244BA
:100140008344AAF10107DA4501D100F034F8AFF297
:10015000090EBAE80F0013F0010F18BFFB1A43F0A5
:100160000103184788300000A8300000103A24BF6F
:1001700078C878C1FAD8520724BF30C830C144BF0C
:1001800004680C607047000000230024002500264E
:10019000103A28BF78C1FBD8520728BF30C148BFEA
:1001A0000B607047642902F0D784002070471FB5A8
:1001B0001FBD10B510BD02F01DFE1146FFF7F7FF81
:1001C00000F008F802F03BFE03B4FFF7F2FF03BCB7
:1001D00000F0CEFE0EB500F061FE4FF4A06001F01D
:1001E0000BFD4FF4165000F0B9FB00F033FA40F26B
:1001F000CF2140F2CF7000F05DFA40F2CF2140F203
:10020000CF7000F03EFB00F041FC00F025FEB2E0B4
:1002100000F09EFC002870D1322000F07CFE00200F
:100220005549086000F008FD082000F028FD7F38DF
:1002300000EB80004400271E01DB394600E07942D4
:10024000084602F0EFFE83464C4902F00DFE81465F
:10025000052000F014FD803800EB800B584602F0BA
:10026000E1FE8246494602F0F5FE804602F0BEFEFF
:1002700005B2082000F003FDC0F17F0000EB800014
:100280004400002C17DD002D06DA601900B2029040
:10029000601B00B2019005E0601900B20290601B83
:1002A00000B20190DDE9011000F07BFADDE90110F8
:1002B00000F0AFFA21E0002C17DA002D06DA601BFF
:1002C00000B20290601900B2019005E0601B00B21C
:1002D0000290601900B20190DDE9011000F061FAAE
:1002E000DDE9011000F095FA07E00021084600F072
:1002F00058FA0021084600F08CFA16B320484178DD
:1003000020A002F0F5FB314625A002F0F1FB0B2EF8
:1003100008D10021FF2000F0B6FC4FF4FA7000F085
:10032000FAFD0EE00C2E08D1FF21002000F0ABFCFE
:100330004FF4FA7000F0EFFD03E00021084600F0F2
:10034000A2FC062000F09BFC0746052000F097FC6D
:100350008046082000F093FC8146072000F08FFCC7
:10036000824643464A46514614A0009702F0C0FB1D
:10037000322000F0D0FD4BE7A00121420000FE42F8
:100380002401002020200D0A20202025642020693F
:100390007320206C6967687420200D0A000000003B
:1003A00020200D0A20202025642020697320207041
:1003B00072657373656420200D0A00002025356482
:1003C0002025356420253564202535640D0A00007C
:1003D000704700BFFEE700BFFEE700BFFEE700BFBB
:1003E000FEE7704770477047704700000CB500206B
:1003F000019000906C48006840F480306A490860C1
:1004000000BF6948006800F4003000900198401C6B
:100410000190009818B90198B0F5A06FF1D1624829
:10042000006800F4003010B10120009001E00020CD
:1004300000900098012843D15C48006840F010000B
:100440005A4908600846006820F003000860084622
:10045000006840F002000860534840685249486014
:100460000846406848600846406840F4806048603C
:100470000846406820F47C1048600846406840F414
:10048000E81048600846006840F08070086000BFCF
:100490004548006800F000700028F9D042484068E4
:1004A00020F00300404948600846406840F00200E0
:1004B000486000BF3C48406800F00C000828F9D1B3
:1004C0000CBD10B5FFF792FF10BD10B5364800689F
:1004D00040F001003449086008464068344908404B
:1004E0003149486008460068324908402E49086092
:1004F0000846006820F4802008600846406820F420
:10050000FE0048604FF41F008860FFF7DAFF4FF0ED
:1005100000602949086010BD10B5002100200022AC
:10052000214B5B6803F00C0121B1042906D0082996
:1005300028D107E0214B224C236027E01F4B204CA1
:10054000236023E0184B5B6803F47010164B5B6864
:1005500003F48032022303EB904022B9194B43434A
:10056000174C23600DE0104B5B6803F4003323B19C
:10057000144B4343124C236003E0104B4343104C95
:10058000236003E00D4B0E4C236000BF00BF064B01
:100590005B68C3F303130C4CE15C094B1B68CB4055
:1005A000074C236010BD00000010024000200240F4
:1005B0000000FFF8FFFFF6FE08ED00E000127A00F1
:1005C0000000002000093D00040000207FB5054622
:1005D0000C460121084601F0B4F8ADF80850ADF81A
:1005E00004400020ADF80A00ADF8060001A94FF064
:1005F000804001F043FC01221146900701F0B5FF55
:100600001C208DF8000000208DF8010003208DF8DB
:10061000020001208DF80300684601F0F2FA012182
:10062000880701F087FF7FBD10B50121880702F020
:100630004AFA58B10121880702F056FA04480068C6
:1006400008B9012000E000200149086010BD000049
:10065000A00121421CB50121082001F065F801210B
:10066000102001F061F84FF4FC70ADF80400102088
:100670008DF8070003208DF806004FF47070ADF878
:10068000000010208DF8030003208DF8020001A95E
:10069000AA4800F08DFD6946A94800F089FD4FF495
:1006A000FC71A64800F031FE4FF47071A44800F0D0
:1006B0002CFE1CBD30B589B005460C460121022038
:1006C00001F03FF80121042001F02EF8012108205B
:1006D00001F02AF8C020ADF8200018208DF8230082
:1006E00003208DF82200ADF81C0018208DF81F00A3
:1006F00003208DF81E0008A9924800F059FD07A9B3
:100700008E4800F055FDADF81450ADF810400020B3
:10071000ADF81600ADF8120004A98B4801F0AEFB4D
:100720007020ADF800000120ADF802000020ADF807
:1007300006000220ADF808006946834801F0DBFBA3
:100740006946814801F019FC69467F4801F062FC66
:1007500069467D4801F0A9FC01217B4801F0F6FEC5
:100760000821794802F016F80821774802F01BF8B2
:100770000821754802F024F80821734802F029F88E
:100780000121714801F0D6FF01216F4801F0D2FE2E
:1007900009B030BD0146002901DD084600E04842AD
:1007A000704770B505460C46002D07DD01206749EE
:1007B000086000206649C1F8A40106E000206349F2
:1007C000086001206249C1F8A4012846FFF7E2FF52
:1007D00086B231465C4802F045F9002C08DD012064
:1007E0005A49091F086000205949C1F8980107E0DB
:1007F00000205649091F086001205549C1F8980199
:100800002046FFF7C7FF86B231464F4802F02CF969
:1008100070BD70B505460C46002D07DD01204D4921
:10082000086000204C49C1F89C0106E000204949BD
:10083000086001204849C1F89C012846FFF7AAFF3B
:1008400086B23146404802F011F9002C08DD012043
:100850004049091F086000203F49C1F8900107E0A6
:1008600000203C49091F086001203B49C1F8900164
:100870002046FFF78FFF86B23146334802F0F8F882
:1008800070BD30B589B005460C460121084600F020
:1008900058FF0121042000F047FF0E20ADF8200092
:1008A00018208DF8230003208DF82200ADF8185091
:1008B000ADF814400020ADF81A0008A9214800F056
:1008C00077FC0020ADF8160005A94FF0804001F03C
:1008D000D5FA7020ADF804000120ADF80600002024
:1008E000ADF80A00ADF80C0001A94FF0804001F00E
:1008F00044FB01A94FF0804001F08CFB01A94FF0AF
:10090000804001F0D2FB0121880701F01FFE082181
:10091000C80601F048FF0821C80601F051FF082170
:10092000C80601F056FF0121880701F003FF0121ED
:10093000880701F0FFFD09B030BD0000000C014048
:10094000001001400008014000040040A0012242C4
:1009500000002242988121420080214210B586B0D9
:1009600004460121880400F0ECFE0121082000F07B
:10097000DBFE424800F03CFF18208DF817004FF4D2
:100980008060ADF8140003208DF8160005A93C48DE
:1009900000F00EFC04208DF817004002ADF81400A2
:1009A00005A9374800F004FC27208DF8100001202D
:1009B0008DF8130002208DF811008DF8120004A8A4
:1009C00001F01FF9012240F225512C4800F0EBFF05
:1009D00000940020ADF80C000420ADF80A000020BF
:1009E000ADF80800ADF80600ADF8040069462348EC
:1009F00000F041FF0121214800F0C9FF06B010BD01
:100A000010B540F225511D4801F0B2F810B31B4853
:100A100001F02EF8C4B21B48008800F40040C8B9A9
:100A20001848008800F4804060B10A2C03D00020F0
:100A30001449088020E01348008840F40040114920
:100A4000088019E00D2C06D10E48008840F4804043
:100A50000C49088010E00B480088C0F30D000A49DB
:100A60000C5408480088401C064908800846008845
:100A7000C72801DD0020088010BD000000480040AC
:100A8000000C0140140000205C000020FA4880693E
:100A900040F00800F8498861F848006820F47020A8
:100AA000F64908600846006840F400200860F248F3
:100AB000806940F00800F0498861F0480068C0F3A0
:100AC0001300EE49086008460068ED490843EB4909
:100AD0000860704738B50446012000900020E949BD
:100AE0004870012000902EE0BDF80000204018B1B1
:100AF0000120E549086002E00020E3490860012088
:100B0000E14908310860322000F0E1F90020DF49B6
:100B1000C1F8BC01322000F0DAF90120DB49C1F84C
:100B2000BC010846D0F8300130B1D6484078BDF855
:100B300000100843D3494870BDF800004FF6FF711C
:100B400001EA40000090BDF80000FF28CCDD38BD70
:100B500010B50020CC49091D0860CD490878FFF781
:100B6000B9FFCB494878FFF7B5FF0120C749C1F865
:100B7000B801C4484078732801D1002010BD01207D
:100B8000FCE71CB500200190012000900020BE4928
:100B9000091D0860BE490878FFF79CFFBC494878EA
:100BA000FFF798FF0220019033E00120009024E03D
:100BB0000120B549083108600020B449C1F8BC01E2
:100BC000322000F084F90120B049C1F8BC01084688
:100BD000D0F8300150B1AB489DF80410405CBDF82E
:100BE00000100843A7499DF804208854BDF8000070
:100BF0004FF6FF7101EA40000090BDF80000FF28A9
:100C0000D6DD322000F063F99DF80400401CC0B22C
:100C100001909DF804000928C7DB01209A49091DAD
:100C200008601CBD002004E00021964A1154411CBC
:100C3000C8B20928F8DB704710B5FFF7F3FFFFF7DC
:100C4000A0FF9048C0788F49097940EA0120914976
:100C5000088000240FE0904810F81400401E012185
:100C600001FA00F08B490988084010B9601CC0B235
:100C700010BD601CC4B2102CEDDB0020F8E701466B
:100C80008048405C704770B505460C4600207E49A0
:100C9000091D0860102000F01AF90120FFF71AFF63
:100CA0004220FFF717FF0020FFF714FF2846FFF749
:100CB00011FF2046FFF70EFF0020FFF70BFF00207B
:100CC000FFF708FF0020FFF705FF0020FFF702FFF6
:100CD00001206E49C1F8B801102000F0F8F870BD8D
:100CE00010B500206849091D0860102000F0EFF8D9
:100CF0000120FFF7EFFE4220FFF7ECFE0020FFF798
:100D0000E9FE0020FFF7E6FE0020FFF7E3FE0120EA
:100D10005E49C1F8B801102000F0D9F810BD10B537
:100D200000205949091D0860102000F0D0F801206A
:100D3000FFF7D0FE4320FFF7CDFE0020FFF7CAFEED
:100D40000120FFF7C7FE0020FFF7C4FE0020FFF7D9
:100D5000C1FE0020FFF7BEFE0020FFF7BBFE002013
:100D6000FFF7B8FE01204949C1F8B801102000F092
:100D7000AEF810BD10B500204349091D08600120E0
:100D8000FFF7A8FE4420FFF7A5FE0020FFF7A2FE14
:100D90000120FFF79FFEEE20FFF79CFE0020FFF7EB
:100DA00099FE0020FFF796FE0020FFF793FE00203B
:100DB000FFF790FE01203549C1F8B801102000F07E
:100DC00086F810BD10B500202F49091D08601020BD
:100DD00000F07DF80120FFF77DFE4D20FFF77AFE41
:100DE0000020FFF777FE0020FFF774FE0120FFF7D9
:100DF00071FE01202549C1F8B801102000F067F804
:100E000010BD10B500202049091D0860102000F019
:100E10005EF80120FFF75EFE4320FFF75BFE002037
:100E2000FFF758FE0020FFF755FE5A20FFF752FE4D
:100E30005A20FFF74FFE5A20FFF74CFE5A20FFF7CB
:100E400049FE5A20FFF746FE01201049C1F8B801BB
:100E5000102000F03CF810BD10B5FFF741FFFFF780
:100E60003FFFFFF73DFFFFF75AFFFFF783FFFFF755
:100E7000A9FFFFF7C6FF10BD00100240040C01409F
:100E80000000303324010020B4812142008021423F
:100E900018000020160000201A00002010B56FF086
:100EA000040000F0F8FE2E4800682E49B0FBF1F077
:100EB0002D4908700846007800EB4001C1EBC010D6
:100EC0004FF6FF7101EAC0002849088010BD0146B5
:100ED000254A12784A434FF0E0235A6100229A6172
:100EE0001A46126942F001021A6100BF4FF0E02277
:100EF000106900F001021AB100F48032002AF5D026
:100F00004FF0E022126922F001024FF0E0231A6153
:100F100000229A6170470146144A12884A434FF0F2
:100F2000E0235A6100229A611A46126942F00102D6
:100F30001A6100BF4FF0E022106900F001021AB1FF
:100F400000F48032002AF5D04FF0E022126922F03E
:100F500001024FF0E0231A6100229A6170470000FD
:100F60000000002000127A003A0000203C0000201F
:100F700000BF704700BF4A4A128802F04002002AB0
:100F8000F9D0C2B2464B1B1D1A80704710B586B00F
:100F90000446012144F2040000F0C6FB4FF4007047
:100FA000ADF8140003208DF8160018208DF81700F6
:100FB00005A93C4800F0FCF84FF48060ADF814003F
:100FC00004208DF8170005A9364800F0F1F8252017
:100FD0008DF8000003208DF801008DF8020001203B
:100FE0008DF80300684600F00CFE01940020ADF877
:100FF0000800ADF80A00ADF80C00ADF810000C20A8
:10100000ADF80E0001A9264800F035FC012240F29F
:101010002551234800F0C7FC0121214800F0B7FC0E
:1010200006B010BD10B540F225511D4800F0A0FDDE
:1010300010B31B4800F01CFDC4B21B48008800F42C
:101040000040C8B91848008800F4804060B10A2CFC
:1010500003D000201449088020E01348008840F4A1
:1010600000401149088019E00D2C06D10E48008877
:1010700040F480400C49088010E00B480088C0F321
:101080000D000A490C5408480088401C0649088095
:1010900008460088C72801DD0020088010BD000038
:1010A0000038014000080140440000202D010020CC
:1010B0000948804709480047FEE7FEE7FEE7FEE7EC
:1010C000FEE7FEE7FEE7FEE7FEE7FEE70448054928
:1010D000054A064B70470000CB04000831010008A8
:1010E000580200205808002058040020580400200E
:1010F00010B50446CC48844208D10121042000F0F8
:101100002DFB0021042000F029FB46E0C748844263
:1011100008D10121082000F021FB0021082000F067
:101120001DFB3AE0C248844208D10121102000F0A2
:1011300015FB0021102000F011FB2EE0BD48844279
:1011400008D10121202000F009FB0021202000F01F
:1011500005FB22E0B848844208D10121402000F07C
:10116000FDFA0021402000F0F9FA16E0B34884426D
:1011700008D10121802000F0F1FA0021802000F048
:10118000EDFA0AE0AE48844207D10121801500F053
:10119000E5FA0021A01500F0E1FA10BD10B501211B
:1011A000084600F0DBFA0021012000F0D7FA10BD5C
:1011B0002DE9F041024600250026002000230024EE
:1011C000002791F803C00CF00F0591F803C00CF054
:1011D000100CBCF1000F03D091F802C04CEA0505D9
:1011E00091F800C0BCF1000F31D0146800202BE052
:1011F0004FF0010C0CFA00F3B1F800C00CEA030642
:101200009E4220D183004FF00F0C0CFA03F7BC4331
:1012100005FA03FC4CEA040491F803C0BCF1280F62
:1012200006D14FF0010C0CFA00FCC2F814C00AE021
:1012300091F803C0BCF1480F05D14FF0010C0CFA36
:1012400000FCC2F810C0401C0828D1D31460B1F8CB
:1012500000C0BCF1FF0F34DD546800202EE000F127
:10126000080C4FF0010808FA0CF3B1F800C00CEAC2
:1012700003069E4221D183004FF00F0C0CFA03F7B6
:10128000BC4305FA03FC4CEA040491F803C0BCF12A
:10129000280F05D100F1080C08FA0CF8C2F81480E8
:1012A00091F803C0BCF1480F07D100F1080C4FF0D2
:1012B000010808FA0CF8C2F81080401C0828CED3A8
:1012C0005460BDE8F0814FF6FF710180022181700A
:1012D0000421C17070470246002093680B400BB197
:1012E000012000E0002070470146886880B2704706
:1012F00002460020D3680B400BB1012000E0002023
:1013000070470146C86880B270470161704741610B
:1013100070470AB1016100E041617047C1607047E8
:101320004FF480320A4382618161826182698269FD
:10133000704702460020434B18684FF680731840F0
:1013400040EA021008433F4B186070473E49C861AD
:101350007047F0B50A46002300240021002500F064
:101360000046B6F1004F02D1364EF16901E0354E2C
:101370007168C0F3034583B200F44016B6F5401F10
:1013800008D121F070612F4E766826F070662D4FDF
:101390007E6012E000F48016B6F5801F06D10326A9
:1013A00006FA05F4A14341F0706106E0460D3601EE
:1013B00003FA06F6B14341F0706122B1460D3601E1
:1013C00003FA06F6314300F00046B6F1004F02D1B1
:1013D0001C4EF16101E01B4E7160F0BD30B5002282
:1013E0008B071C0F0F2303FA04F2164B08338C10E3
:1013F00053F824309343134C08348D1044F82530AF
:1014000023468C1053F824308C07240F00FA04F480
:1014100023430C4C08348D1044F8253030BD0A4964
:10142000DC3108607047000000080140000C0140FA
:10143000001001400014014000180140001C014050
:10144000002001400000014000002042DF48006809
:1014500040F00100DD49086008464068DC4908406A
:10146000DA49486008460068DA490840D749086008
:101470000846006820F4802008600846406820F490
:10148000FE0048604FF41F0088607047CF4909682C
:1014900021F48031CD4A11601146096821F4802180
:1014A0001160B0F5803F03D0B0F5802F0ED106E07B
:1014B000C649096841F48031C44A116007E0C34954
:1014C000096841F4A021C14A116000E000BF00BFDB
:1014D000704710B501460022002300204A11012A5E
:1014E00002D1BA4C236806E0022A02D1B74C236A23
:1014F00001E0B64C636A01F01F02012494401C40D5
:101500000CB1012000E0002010BD38B50020009093
:101510000024002500BF3120FFF7DBFF05460098BF
:10152000401C00900098B0F5A06F01D0002DF2D0C3
:101530003120FFF7CEFF08B1012400E0002420464F
:1015400038BD01460020A14A106820F0F80040EAAA
:10155000C10010607047A049086070470246002033
:101560009A4B586820F47C1042EA01031843974BC9
:101570005860704798490866704701460020934AB2
:10158000506820F003000843506070478F4840685F
:1015900000F00C007047014600208C4A506820F093
:1015A000F00008435060704701460020874A5068A9
:1015B00020F4E06008435060704701460020834AF1
:1015C000506820F4605040EAC1005060704729B173
:1015D0007E4A527A02437D4B5A7204E07B4A527A29
:1015E00082437A4B5A7270477B49D8310860704702
:1015F00001460020754A506820F44040084350607E
:1016000070470021714A20321170704A82F8201010
:10161000012802D004280AD104E001216B4A2032BB
:10162000117005E00521694A2032117000E000BF09
:1016300000BF70476949086070476449096A0143FF
:10164000624A11627047654944390860704730B595
:1016500000210022002400235C4D6D6805F00C0180
:1016600021B1042905D0082923D105E05C4D05608E
:1016700022E05B4D05601FE0544D6D6805F470126B
:10168000524D6D6805F48034022505EB92421CB979
:10169000544D554305600BE04C4D6D6805F4003525
:1016A0001DB1504D5543056002E04D4D5543056059
:1016B00002E04B4D056000BF00BF444D6D6805F072
:1016C000F0010909484D6B5C0568DD4045603F4D00
:1016D0006D6805F4E061090A434D6B5C4568DD40C7
:1016E00085603A4D6D6805F46051C90A3E4D6B5CEA
:1016F0004568DD40C560354D6D6805F44041890B96
:101700003A4D6B5CC568B5FBF3F5056130BD29B199
:101710002E4A526902432D4B5A6104E02B4A52690A
:1017200082432A4B5A61704729B1284A9269024381
:10173000264B9A6104E0254A92698243234B9A61C1
:10174000704729B1214AD2690243204BDA6104E093
:101750001E4AD26982431D4BDA61704729B11B4A88
:10176000D2680243194BDA6004E0184AD268824317
:10177000164BDA60704729B1144A12690243134BC1
:101780001A6104E0114A12698243104B1A617047D2
:1017900012494039086070470F49C86470470B49C7
:1017A000C87170470948406A40F080700749486234
:1017B000704701460020054A92680A400AB101209C
:1017C00000E0002070470149887270470010024015
:1017D0000000FFF8FFFFF6FE000042428004424294
:1017E00000127A0000093D0046000020560000204B
:1017F00010B50446FB48844209D101218803FFF754
:10180000ADFF00214FF48040FFF7A8FF32E0F6481B
:10181000844209D101214804FFF7ADFF00214FF4B4
:101820000030FFF7A8FF25E0F048844209D10121EC
:101830008804FFF7A0FF00214FF48020FFF79BFFF3
:1018400018E0EB48844209D10121C804FFF793FF57
:1018500000214FF40020FFF78EFF0BE0E5488442A3
:1018600008D101210805FFF786FF00214FF4801001
:10187000FFF781FF10BD2DE9F04786B005460E4603
:101880000024A24600BFA1460027B08900B100BFD6
:101890002F462C8A4CF6FF700440F08804432C82BB
:1018A000AC894EF6F3100440B08831890843718941
:1018B00008430443AC81AC8A4FF6FF400440B08932
:1018C0000443AC8201A8FFF7C2FEC648874202D19A
:1018D000DDF810A001E0DDF80CA0A88900F40040BC
:1018E00040B10AEBCA0000EB0A1031684900B0FBB6
:1018F000F1F807E00AEBCA0000EB0A103168890032
:10190000B0FBF1F86420B8FBF0F004012009642179
:1019100001FB1089A88900F4004040B1322000EB9F
:10192000C900B0FBF1F000F00700044308E03220EA
:1019300000EB09106421B0FBF1F000F00F0004434C
:101940002C8106B0BDE8F0874FF4165101600021EC
:101950008180C18001810C214181002181817047FA
:1019600010B502460020108A4FF2FF0318400B8882
:101970004C8823438C882343CC882343184310820C
:1019800010BD0021018041808180C180704721B15C
:10199000828942F40052828104E082894DF6FF730D
:1019A0001A4082817047F0B50346002400260025C6
:1019B000002040F66A17B94200D100BF1846C1F3B3
:1019C000421401F01F06012707FA06F5012C01D188
:1019D0000C3004E0022C01D1103000E014301AB1B8
:1019E00007682F43076002E00768AF430760F0BD58
:1019F0001AB1838A0B43838202E0838A8B438382FA
:101A00007047028A4FF6F0731A400282028A0A4334
:101A10000282704782894FF2FF731A408281828965
:101A20000A438281704721B1828942F00202828199
:101A300004E082894FF6FD731A4082817047028A62
:101A40004FF6DF731A400282028A0A43028270470D
:101A500021B1028A42F48042028204E0028A4BF6FB
:101A6000FF731A4002827047C1F3080282807047F8
:101A700001468888C0F308007047818941F0010160
:101A800081817047028BD2B20283028B42EA01222B
:101A900002837047028B02F47F420283028B0A4367
:101AA0000283704721B1828A42F02002828204E0E0
:101AB000828A4FF6DF731A408282704721B1828A90
:101AC00042F01002828204E0828A4FF6EF731A40DD
:101AD0008282704721B1828A42F00802828204E049
:101AE000828A4FF6F7731A408282704721B1828949
:101AF00042F40042828103E08289C2F30E028281B5
:101B0000704721B1828A42F40062828204E0828AB4
:101B10004FF2FF731A4082827047828A4FF6FB733E
:101B20001A408282828A0A438282704721B1828A65
:101B300042F00202828204E0828A4FF6FD731A406C
:101B40008282704702460020B1F5007F00D100BFBD
:101B500013880B400BB1012000E00020704701F416
:101B60000072B2F5007F00D100BFCA430280704707
:101B700070B50246002400230025002040F66A16B6
:101B8000B14200D100BFC1F3421501F01F0301268D
:101B900006FA03F3012D02D19689334006E0022DA7
:101BA00002D1168A334001E0968A33400C12012696
:101BB00006FA04F41688344013B10CB1012000E099
:101BC000002070BD10B50022002340F66A14A14227
:101BD00000D100BF0A1201249440A3B2DC43048068
:101BE00010BD0000003801400044004000480040A3
:101BF000004C00400050004031490143314A11601F
:101C0000704770B5002100230F22C47804B32D4C17
:101C1000246804F4E064C4F5E064210AC1F104031B
:101C2000CA40447804FA03F184781440214309013E
:101C3000254C0678A155047804F01F050124AC401A
:101C400005786D11AD0005F1E025C5F8004109E00A
:101C5000047804F01F050124AC401C4D0678761171
:101C600045F8264070BD1A4A0A400243154B1B1F17
:101C70001A60704739B1134A121D12680243114BA2
:101C80001B1D1A6006E00F4A121D126882430D4B9D
:101C90001B1D1A607047042808D14FF0E021096924
:101CA00041F004014FF0E022116107E04FF0E02124
:101CB000096921F004014FF0E02211617047000032
:101CC0000000FA050CED00E000E400E080E100E037
:101CD00080FFFF1F10B50446FE48844208D1012151
:101CE000C014FFF73BFD0021E014FFF737FDC4E00F
:101CF000B4F1804F08D101210846FFF73CFD0021D7
:101D00000120FFF738FDB8E0F348844208D10121F3
:101D10000220FFF730FD00210220FFF72CFDACE090
:101D2000EE48844208D101210420FFF724FD002160
:101D30000420FFF720FDA0E0E948844208D10121FA
:101D40000820FFF718FD00210820FFF714FD94E09C
:101D5000E448844208D101211020FFF70CFD002146
:101D60001020FFF708FD88E0DF48844208D10121F8
:101D70002020FFF700FD00212020FFF7FCFC7CE085
:101D8000DA48844208D101214014FFF7E7FC002122
:101D90006014FFF7E3FC70E0D548844209D10121CB
:101DA000C804FFF7DBFC00214FF40020FFF7D6FC4E
:101DB00063E0D048844209D101210805FFF7CEFC39
:101DC00000214FF48010FFF7C9FC56E0CA48844256
:101DD00009D101214805FFF7C1FC00214FF4001093
:101DE000FFF7BCFC49E0C548844208D101214020EE
:101DF000FFF7C1FC00214020FFF7BDFC3DE0C048DB
:101E0000844208D101218020FFF7B5FC0021802009
:101E1000FFF7B1FC31E0BB48844208D101218015B5
:101E2000FFF7A9FC0021A015FFF7A5FC25E0B648A7
:101E3000844209D101210804FFF790FC00214FF4EE
:101E40008030FFF78BFC18E0B048844209D10121B3
:101E50004804FFF783FC00214FF40030FFF77EFCBD
:101E60000BE0AB48844208D101218804FFF776FCDF
:101E700000214FF48020FFF771FC10BD0022028882
:101E8000944B98420ED0994B98420BD0B0F1804FB2
:101E900008D0914B984205D0904B984202D0904B7D
:101EA000984204D14FF68F731A404B881A438D4BDA
:101EB000984207D08C4B984204D04FF6FF431A400B
:101EC000CB881A4302808B8883850B880385814BDE
:101ED00098420BD0854B984208D08B4B984205D046
:101EE0008A4B984202D08A4B984201D10B7A0386E2
:101EF00001238382704770B5002400220023058CE3
:101F00004FF6FE7635400584028C8388048B4FF6AD
:101F10008F752C40B51E2C400D882C43751E2A4011
:101F20000D892A434D882A436A4DA8420BD06F4D34
:101F3000A84208D0744DA84205D0744DA84202D0E2
:101F4000734DA84213D14FF6F7752A404D892A43A5
:101F50004FF6FB752A408D882A434FF6FF652B40CC
:101F60004FF6FF552B408D892B43CD892B43838022
:101F70000483CD888586028470BD70B5002400225C
:101F80000023058C4FF6EF7635400584028C83885C
:101F9000048B48F6FF752C404FF6FF452C400D880A
:101FA0004FF6FF7606EA05252C434FF6DF752A40EB
:101FB0000D8906EA05152A434D8806EA05152A43C8
:101FC000444DA84202D0494DA8421DD14FF67F751D
:101FD0002A404D894FF6FF7606EA05152A434FF64B
:101FE000BF752A408D8806EA05152A434FF6FF354E
:101FF0002B404FF2FF752B408D8906EA85052B4358
:10200000CD8906EA85052B4383800483CD88058727
:10201000028470BD70B5002400220023058C4FF6A9
:10202000FF6635400584028C8388848B4FF68F755C
:102030002C404FF6FC752C400D882C434FF6FF5575
:102040002A400D894FF6FF7606EA05252A434D887A
:1020500006EA05252A431F4DA84202D0234DA84277
:102060001DD14FF2FF752A404D894FF6FF7606EAE3
:1020700005252A434FF6FF352A408D8806EA0525B7
:102080002A434EF6FF752B404DF6FF752B408D8988
:1020900006EA05152B43CD8906EA05152B438380F7
:1020A0008483CD888587028470BD70B500220023AB
:1020B0000024058C4EF6FF7635400584038C848819
:1020C000828B48F6FF752A404FF6FF452A400D885F
:1020D00020E00000002C0140000400400008004007
:1020E000000C00400010004000140040003401408B
:1020F000004C0140005001400054014000180040D5
:10210000001C00400020004000400140004401400D
:10211000004801404FF6FF7606EA05252A434DF6B2
:10212000FF752B400D8906EA05352B434D8806EADD
:1021300005352B43FA4DA84202D0FA4DA84208D1EA
:102140004BF6FF752C408D894FF6FF7606EA851514
:102150002C4384808283CD88A0F84050038470BDD6
:10216000828B4FF2FF331A408283828B4FF6FF73CC
:1021700003EA01231A4382837047F0B50C461546E3
:10218000002200210026078C4EF6FF7C07EA0C0790
:102190000784828B018C4FF6FF7707EA043640F6FE
:1021A000FF473A404FF6FF7707EA05273A434FF6D5
:1021B000FF7707EA03373A43D94FB8420ED0D94FD9
:1021C000B8420BD0B0F1804F08D0D74FB84205D0FD
:1021D000D64FB84202D0D64FB84206D14DF6FF775F
:1021E000394046F48057394305E047F6FF573940F8
:1021F00044F48057394382830184F0BD828B4FF6CB
:10220000F3731A408283828B0A4382837047F0B54E
:102210000C461546002200210026078C4FF6FF6C65
:1022200007EA0C070784828B018C4FF6FF7707EAD9
:1022300004264FF60C773A404FF6FF7707EA03176C
:102240002F433A43B64FB8420ED0B64FB8420BD0E8
:10225000B0F1804F08D0B44FB84205D0B34FB84268
:1022600002D0B34FB84206D14FF6FF57394046F47B
:102270008077394305E04FF2FF57394044F48077C7
:10228000394382830184F0BD028B4FF2FF331A4041
:102290000283028B4FF6FF7303EA01231A43028382
:1022A0007047F0B50C461546002200210026078C29
:1022B0004FF6EF7C07EA0C070784028B018C4FF680
:1022C000FF7707EA041640F6FF473A404FF6FF77DC
:1022D00007EA03373A434FF6FF7707EA05273A4301
:1022E0008F4FB8420ED08F4FB8420BD0B0F1804F15
:1022F00008D08D4FB84205D08C4FB84202D08C4FD9
:10230000B84206D14FF6DF77394046F0100739431F
:1023100005E04FF65F77394044F0100739430283F8
:102320000184F0BD028B4FF6F3731A400283028BD7
:102330000A4302837047F0B50C461546002200217F
:10234000068C4FF6FE773E400684028B018C4FF6DA
:102350000C7632407E1C06EA03162E433243704E42
:10236000B0420ED06F4EB0420BD0B0F1804F08D0CB
:102370006D4EB04205D06D4EB04202D06C4EB042B0
:1023800006D14FF6FD76314044F00106314305E0B9
:102390004FF6F576314044F0010631430283018463
:1023A000F0BD70B505460C465D4885420ED05D48CF
:1023B00085420BD0B5F1804F08D05B48854205D0EF
:1023C0005A48854202D05A48854200D100E000BFF9
:1023D000208850B92389A28861882846FFF7ABFF7F
:1023E000E1882846FFF79EFF25E0208804280AD1CF
:1023F0002389A28861882846FFF753FFE188284691
:10240000FFF742FF17E0208808280AD12389A28815
:1024100061882846FFF7FBFEE1882846FFF7EEFEBD
:1024200009E02389A28861882846FFF7A6FEE18893
:102430002846FFF795FE70BD2DE9F04105460C4694
:1024400000260127608808B9022600E00026A0883F
:10245000012801D1022700E001272088A0B92389A3
:10246000A28861882846FFF766FFE1882846FFF7C3
:1024700059FF23893A4631462846FFF712FFE18883
:102480002846FFF701FF13E02389A28861882846C8
:10249000FFF707FFE1882846FFF7F6FE23893A4653
:1024A00031462846FFF747FFE1882846FFF73AFF05
:1024B000BDE8F0810A884B881A438B881A43CB8881
:1024C0001A430B891A434B891A438B891A43A0F884
:1024D000442070474FF6FF71818000210180C18048
:1024E0004180017270470021018041808180C1805C
:1024F000018141818181C18170470021018041803A
:10250000012181800021C18001817047002101806B
:1025100041808180C18001814181818170470000BB
:10252000002C01400034014000040040000800403D
:10253000000C004021B1028842F00102028004E058
:1025400002884FF6FE731A400280704731B1B0F82E
:10255000442042F40042A0F8442005E0B0F84420B2
:10256000C2F30E02A0F8442070471AB183890B43CE
:10257000838102E083898B43838170478182704726
:1025800041EA0203A0F8483070471AB183890B432F
:10259000838102E083898B438381704701894FF6F1
:1025A000F8721140018170470A46002101894FF6F7
:1025B0008F73194011430181704730B504460D46B1
:1025C00029462046FFF7F0FF208940F007002081D0
:1025D00030BD2DE9F04104460D4616461F46602DDC
:1025E00006D13B46012231462046FFF75AFE05E060
:1025F0003B46012231462046FFF79DFE29462046F4
:10260000FFF7D2FF208940F007002081BDE8F0816C
:1026100030B50C4600210189C9B24FF6FF7505EAB5
:102620000325154325432943018130BD2DE9F041A0
:1026300005460E4617469846002443463A4631461C
:102640002846FFF7E5FF2C894FF6F870044044F068
:1026500007044FF68F70044044F070042C81BDE8ED
:10266000F081F0B504460D4616461F463B463246FD
:1026700029462046FFF7CCFF208940F48040208186
:10268000F0BD0185828270470A46002101884FF61D
:102690008F731940114301807047F0B50C46154601
:1026A0001E460021002200230189028B038C4FF675
:1026B000F877394021434FF6FC473A4040F2011782
:1026C0003A434FF6DD773B404FF6FF7707EA0617B0
:1026D0002F433B43018102830384F0BD0A4600215E
:1026E000018B4FF68F7319401143018370470A46DF
:1026F0000021018B48F6FF7319404FF6FF7303EA80
:1027000002231943018370470A460021818B4FF64B
:102710008F7319401143818370470A460021818BD2
:1027200048F6FF7319404FF6FF7303EA022319437B
:102730008183704721B1028842F08002028004E068
:1027400002884FF67F731A400280704721B1828859
:1027500042F00402828004E082884FF6FB731A4044
:102760008280704721B1828842F00802828004E0B2
:1027700082884FF6F7731A408280704721B18288B1
:1027800042F00102828004E082884FF6FE731A4014
:10279000828070470A460021018B4FF6F77319407B
:1027A0001143018370470A460021018B4FF2FF73EA
:1027B00019404FF6FF7303EA022319430183704760
:1027C0000A460021818B4FF6F7731940114381832C
:1027D00070470A460021818B4FF2FF7319404FF674
:1027E000FF7303EA02231943818370470A460021DD
:1027F000018B4FF6FB7319401143018370470A4662
:102800000021018B4FF6FF3319404FF6FF7303EAA7
:1028100002231943018370470A460021818B4FF63A
:10282000FB7319401143818370470A460021818B55
:102830004FF6FF3319404FF6FF7303EA02231943A3
:10284000818370470A460021018B4FF67F73194040
:102850001143018370470A460021018BC1F30E0129
:102860004FF6FF7303EA02231943018370470A46B8
:102870000021818B4FF67F7319401143818370478C
:102880000A460021818BC1F30E014FF6FF7303EA64
:1028900002231943818370470A460021018C4FF6B9
:1028A000FD7319401143018470470A460021018CD1
:1028B0004FF6F77319401143018470470A4600210F
:1028C000018C4FF6DF7319404FF6FF7303EA0213D2
:1028D0001943018470470A460021018C4FF67F732B
:1028E00019404FF6FF7303EA02131943018470473E
:1028F0000A460021018C4FF6FF5319404FF6FF7333
:1029000003EA02231943018470470A460021018C1F
:102910004FF2FF7319404FF6FF7303EA0223194386
:10292000018470470A460021018C4DF6FF7319405F
:102930004FF6FF7303EA023319430184704730B541
:10294000002301248C40A3B2048C9C430484048C97
:1029500002FA01F5ADB22C43048430BD30B500233A
:1029600004248C40A3B2048C9C430484048C02FA9B
:1029700001F5ADB22C43048430BD70B50346002090
:1029800000241846183001258D40ACB21D8CA5439B
:102990001D8409B1082909D100EB6100056825F003
:1029A000700505600568154305600EE00D1FC5F351
:1029B0004E052844056825F4E045056005684FF696
:1029C000FF7606EA02263543056070BD21B1028814
:1029D00042F00202028004E002884FF6FD731A40C2
:1029E0000280704721B1028842F00402028004E0B4
:1029F00002884FF6FB731A400280704721B182882B
:102A000042F08002828004E082884FF67F731A4091
:102A10008280704702884FF6F7731A40028002885E
:102A20000A430280704782884FF68F731A40828073
:102A300082880A438280704702894FF6F8731A40F1
:102A4000028102890A430281704702894FF67F732F
:102A50001A40028102890A430281704781847047CB
:102A600081857047818670470187704781877047ED
:102A7000A0F84010704702884FF6FF431A400280CA
:102A800002880A43028070470146888E70470146DB
:102A9000088F70470146888F70470146B1F84000A3
:102AA00070470146888C70470146088D7047024682
:102AB0000020138A0B400BB1012000E0002070477A
:102AC000CA430282704730B502460020002300242A
:102AD000158A05EA0103958905EA010413B10CB1D1
:102AE000012000E0002030BDCA43028270477047D9
:102AF0000FB4044910B503AA029800F04DF910BCB8
:102B00005DF814FB4000002070B50446856900683C
:102B1000C10601D5302600E02026C00707D070BDD1
:102B2000D4E9012130469047206A401C20626D1E86
:102B3000F6D570BD70B5044685690078C00707D129
:102B400070BDD4E9012120209047206A401C2062FA
:102B50006D1EF6D570BD00002DE9F041064600243B
:102B600010687529314616A510D0AFF300800028F3
:102B700002DA404213A507E031688A0701D512A5A1
:102B800002E0490704D511A5012401E0AFF300805C
:102B900000210A2206F1240709E0B0FBF2FCB0FB99
:102BA000F2F302FB1C00303078541846491C002810
:102BB000F3D123462A463046BDE8F04100F093B8F1
:102BC000000000002D0000002B000000200000008D
:102BD0002DE9F0474FF0000A89460446C0F820A0CE
:102BE0002046E1688847002876D0252806D0D4E919
:102BF00001219047206A401C2062F1E7E1682046ED
:102C000000258847C4F81CA006460027C4F818A071
:102C10002A2E09D0304600F01FF938B304EB87089C
:102C2000303EC8F8186019E059F8041B204604EB40
:102C300087029161E1688847012F064618D1E06953
:102C4000002820DA25F020051DE0D8F8180000EB58
:102C5000800006EB40003038C8F818002046E168D4
:102C60008847064600F0F8F80028EED1012F0AD078
:102C70002E2E08D12046E16888477F1C0646022F89
:102C800045F02005C4DBA069002803DA404245F086
:102C90000105A061E80701D025F01005B6B1A6F145
:102CA0004100192802D8203645F400654A463146CD
:102CB000204625604D46FDF775FA58B1012806D02B
:102CC000ED1D25F0070000F1080989E704E005F192
:102CD000040985E730468AE7206ABDE8F087704737
:102CE0007047704770472DE9F0470D469946924668
:102CF000044600F124080168880604D5E06921F043
:102D00001001216000E00120A84201DD471B00E026
:102D10000027A1697A1902EB0900081AA06120783E
:102D2000C00602D42046FFF7EFFE002608E0D4E9F3
:102D300001211AF806009047206A401C761C206288
:102D40004E45F4DB2078C0060AD52046FFF7DCFEAE
:102D500006E0D4E9012130209047206A401C20621F
:102D6000381EA7F10107F4DC07E0D4E9012118F8C7
:102D700005009047206A401C2062281EA5F101052D
:102D8000F3DC2046FFF7D6FE2078000602D50220AD
:102D9000BDE8F0870120FBE7074B70B50D467B448B
:102DA00000F011F80446284600F020F810B14FF06A
:102DB000FF3070BD204670BDD3E1FFFF01694A1CA2
:102DC00002610878704700B58FB0CDE9013100216C
:102DD000059105497944CDE9031011466846FFF78E
:102DE000F7FE0FB000BD0000E5FFFFFF007B00F025
:102DF00080007047754600F02BF8AE460500694626
:102E0000534620F00700854618B020B5FEF75EF95E
:102E1000BDE820404FF000064FF000074FF00008DB
:102E20004FF0000B21F00701AC46ACE8C009ACE85C
:102E3000C009ACE8C009ACE8C0098D46704710B5C0
:102E40000446AFF300802046BDE81040FDF7BCB952
:102E500000487047F801002030380A2801D20120CC
:102E600070470020704700004FF47F0C1CEAD0121E
:102E70001EBF1CEAD11392EA0C0F93EA0C0F00F06C
:102E8000858090EA010F48BF42F4807240F4000C44
:102E900041F400002CF07F4120F07F4000B58142DA
:102EA000A2EB03020FF2081CACEB504EC0F1000085
:102EB0009EF800E04FEA4E0E00FB0EFC38BF4900C2
:102EC0004FEA2C1C02F5FA020CFB0EF34FEACE1E61
:102ED0004FEA112C4FEAC1210EEB635E42EB224216
:102EE0000EFB0CFC4FEA1C5300FB03114FEA112CA4
:102EF0004FEA01310EFB0CFC4FEADC4C00FB0C11DD
:102F0000C14228BF09184CEB03335DF804EB10EB0A
:102F1000410143EBC250B2F57C0F38BF704729D551
:102F200012F0F00F1CBF00F1C04000F000407047ED
:102F3000008182838485868788898B8C8D8E8F9192
:102F40009293959697999A9C9D9FA0A2A3A5A7A8B6
:102F5000AAACAEB0B2B3B5B7B9BCBEC0C2C5C7C9E2
:102F6000CCCED1D4D7D9DCDFE2E6E9ECF0F3F7FA46
:102F7000FE0000004FEA400C0CF1807CBCF17E4F5B
:102F800028BF7047B0F1C04000F02BB990EA010FA4
:102F90000CEAD11348BF42F48072624538BF6345E2
:102FA00007D213F47F0F16D080EA010000F0004032
:102FB000704710B500F0CFF8097EFC3E00F005B870
:102FC00080EA010000F00040704780EA010000F054
:102FD000004000F006B912F47F0F04BF02487047AA
:102FE00080EA010000F0FDB80000C07F41000B0E38
:102FF000D3F19E0208D950F400034FEA032323FAC9
:1030000002F048BF4042704710B500F0A4F800BF7E
:1030100049922480002070476FF0004282EA20002D
:103020007047000010F0004148BF4042B0FA80F302
:1030300010FA03F2C3F19D030BD051EAC35101EB27
:103040001220530638BF704700F1010008BF20F07E
:10305000010070474FF47F0C1CEAD0121EBF1CEA1F
:10306000D11392EA0C0F93EA0C0F00F0478090EA1C
:10307000010F48BF42F480724FF0004C4CEA002030
:103080004CEA012102EB0302A0FB0113A2F50002AE
:10309000002918BF43F001035B0028BF4FEA330348
:1030A00042EB22425FEA132C4CEBC2502EBFBCEB2A
:1030B000436FB2F57C0F70474FEA036CBCF1004FD1
:1030C00008BF20F00100B2F57C0F38BF70470BD568
:1030D00082F0FF0212F5803FC8BF704700F1C04088
:1030E000D8BF00F00040704700F5000C5FEA4C0CC0
:1030F00048BF7047B0F1C04000F073B890EA010FCC
:103100000CEAD11348BF42F48072624538BF634570
:1031100004D280EA010000F00040704710B500F0D2
:103120001AF800BF8900013E00F007B800F009B8A6
:103130005FEA410C5FEA1C6C08D080EA010000F0F5
:1031400050B85FEA400C5FEA1C6CF6D14FF00040CB
:10315000A0F5800070470EF1020E2EF0030E5EF80F
:10316000044B244204D44FEA4102B2F17F4F11D8FC
:103170004FEA4003B3F17F4F0CD80ED14FEAD07C19
:10318000B2F17F4F0CEB4C0C0CF1020C08BF4CEB76
:10319000D17C04E04FF0080C01E04FEAD17C0CEB4D
:1031A0004C0324FA03F404F00704B4F1040C06D22F
:1031B0000EEB840CBDE810404CF0010C6047DFE8DA
:1031C0000CF0070802024FF00040A0F5800010BD8F
:1031D0000846420018BFD2F1807288BF00F000405C
:1031E00010BDFF2141EAD050C00570470C320008E5
:1031F000000000205C0000006C010008683200083C
:103200005C000020FC0700008801000800A24A04BE
:103210000000000000000000010203040607080986
:10322000000000000142010002000300040005004C
:1032300006000700080009000A000B000C000D0042
:103240000E000F0010000000000000000000000051
:10325000000000000000010203040102030406074D
:08326000080902040608000041
:0400000508000131BD
:00000001FF
